:020000040800F2
:10000000C8070020B501000839250008711F000845
:10001000352500088D020008692600080000000050
:100020000000000000000000000000004125000862
:1000300091020008000000003D2500084525000849
:10004000CF010008CF010008CF010008CF01000850
:10005000CF010008CF010008CF010008CF01000840
:10006000CF010008CF010008CF010008CF01000830
:10007000CF010008CF010008CF010008CF01000820
:10008000CF010008CF010008CF010008CF01000810
:10009000CF010008CF010008CF010008CF01000800
:1000A000CF010008CF010008CF010008CF010008F0
:1000B000CF010008CF010008CF010008CF010008E0
:1000C000CF010008CF010008CF010008CF010008D0
:1000D000CF010008CF01000859260008CF01000811
:1000E000CF010008CF010008CF01000800F002F89E
:1000F00000F050F814A696E8000CB244B344DA4578
:1001000001D100F047F8BAE80F000FA696E83000DA
:10011000A5EB040504EB0607AAEB0704A7F101070A
:100120004FEA15154FEA3414A4F10104AC4201D38F
:1001300000F030F813F0010F18BFFB1A43F0010371
:1001400000F001F8DBE71847FC4200001C43000008
:10015000103A24BF78C878C1FAD8520724BF30C8F3
:1001600030C144BF04680C60704700007047000055
:100170000023002400250026103A28BF78C1FBD8B0
:10018000520728BF30C148BF0B6070471FB51FBD65
:1001900010B510BD00F044F81146FFF7F7FF02F06C
:1001A000BBFB00F062F803B4FFF7F2FF03BC00F002
:1001B00065F800000948804709480047FEE7FEE768
:1001C000FEE7FEE7FEE7FEE7FEE7FEE7FEE7FEE707
:1001D00004480549054A064B7047000049250008B8
:1001E000ED000008C8010020C8070020C803002057
:1001F000C803002070477047704710B500F008F83A
:10020000006810BD10B5044600F002F8046010BD8F
:100210000048704720000020004870472000002060
:100220007546FFF7F9FFAE4605006946534620F0D4
:100230000700854618B020B5FFF7CAFFBDE820408B
:100240004FF000064FF000074FF000084FF0000B92
:10025000AC46ACE8C009ACE8C009ACE8C009ACE801
:10026000C00921F007018D46704710B50446AFF371
:1002700000802046BDE81040FFF795BF01491820D7
:10028000ABBEFEE72600020070470000FEE700005C
:1002900070470000014690F82100022816D1086836
:1002A000D1E90FC3026822F00E020260026822F058
:1002B00001020260012000FA03F2CCF8042081F868
:1002C00021000020002281F820207047042088634C
:1002D0000120002281F820207047000090F82110B2
:1002E000022923D10268116821F00E0111602F212B
:1002F0001368C4F202018A4240F20401C4F202010E
:1003000023F00103136015DD3023C4F202039A4287
:100310001CD04423C4F202039A421BD05823C4F2D7
:1003200002039A421CD14FF4803321E004218163FF
:10033000012070470823C4F202039A420ED01C2306
:10034000C4F202039A420BD1102311E04FF48073E0
:100350000EE000BF4FF480530AE000BF012307E026
:1003600001F1680C4FF08073624508BF4FF48013B1
:100370000B60012180F82110426B002180F82010D1
:1003800022B180B590470021BDE880400846704703
:10039000B0B5044600F018F9054640F21000C2F26C
:1003A00000000078611C18BF044400BF00F00CF985
:1003B000401BA042FAD3B0BD2DE9F04F82B00E68C9
:1003C000002E00F0FD8041F20042C4F2010204233D
:1003D00040F2004E904208BF03234FF6FF7CC4F268
:1003E000010E009300240123C1F2100C4FF0000A0B
:1003F0004FF0000944E000BF012704F00C030F2276
:100400009A402BEA020207FA03F34FEA9A051A43CD
:1004100046F825204E6840F20C45F202DEF808202E
:1004200054BF22EA080242EA0802C4F20105CEF8EB
:1004300008202A68B30254BF22EA080242EA0802EE
:100440002A60B303DEF8042054BF22EA080242EA1D
:100450000802F303CEF80420DEF800204FF0010379
:1004600054BF22EA080242EA0802CEF800200E68D1
:100470000AF1010A36FA0AF204F1040400F0A0803D
:1004800003FA0AFB16EA0B08F1D04E68664511DC48
:10049000122E55D8DFE806F0340A44485454545418
:1004A0005454545454545454544C5000D1F80C9057
:1004B00046E000BF4FF6FF72C1F2210296420FDC08
:1004C0000022C1F2110296421AD00022C1F2120299
:1004D000964215D00022C1F22102964210D02FE0A0
:1004E0000022C1F2220296420AD00022C1F2310259
:1004F000964205D00022C1F23202964220D100BFBE
:100500008A684AB1012A14BFC0F814B0C0F810B00C
:100510004FF0080914E000BF4FF0040910E000BFDD
:10052000CA6802F108090BE04FF0000908E000BFBB
:10053000CA6802F1040903E0CA6802F10C0900BFAD
:1005400022460646B8F5807F24BF203A0436376835
:100550000F25954027EA050509FA02F22A43326081
:10056000CA79D2067FF583AF41F21803C4F20203C1
:100570001A68AEF57E7642F001021A601A6802F03F
:1005800001020192019A2AF0030256F802B040F6E5
:100590000002C4F20102904210D040F60042C4F2C0
:1005A000010290423FF428AF41F20002C4F201027E
:1005B000009F904208BF02271FE700BF00271CE7EB
:1005C00002B0BDE8F08F000040F2C410C2F200009B
:1005D00000687047002804BF01207047F0B581B063
:1005E000044690F83D0028B9002084F83C002046DD
:1005F00000F040FD242084F83D002068016821F0CF
:1006000001010160016841F400410160016821F4C9
:100610000041016000F0F8FE636848F2A16CC0F28E
:10062000010C40F60011C0F23D0163453CBF48F2A9
:100630008041C0F21E01884202D2012001B0F0BD0B
:100640004DF68361C4F21B31A0FB01122168970CA7
:10065000D1F804E04FF496762EF03F0545EA924536
:100660004D60774348F638160D6AC0F24106A7FB85
:10067000067625F03F07634538BF960C721C3A4357
:100680000A62CA6948F2A0664CF6FF77C0F201061A
:10069000B34222EA07020BD801385B00B0FBF3F04B
:1006A00001306FF31F30042898BF04201BE000BF07
:1006B000A768013857B119277B43B0FBF3F001302D
:1006C0006FF31F3070B100F5804007E003EB430388
:1006D000B0FBF3F001306FF31F3018B100F50040AC
:1006E00001E000BF01201043C8610868D4E9072376
:1006F00020F0C000104318430860886848F2FF32B9
:1007000004F10C0790438CCF18431043A66988600E
:10071000C86820F0FF0038433043C860086840F0E4
:100720000100086000202021206484F83D1020632F
:1007300084F83E0001B0F0BD2DE9F04784B00446D6
:1007400000201F46164689460290FFF73DFF94F8A9
:100750003D10202924D10546206800BF8169890702
:100760001AD5FFF731FF411B20681A29F6D381699A
:100770008907F3D500202021206384F83D1084F8F8
:100780003E00216C41F02001216484F83C000220ED
:1007900004B0BDE8F08700BF94F83C10012903D1F4
:1007A000022004B0BDE8F087012184F83C10016804
:1007B000C90703D1016841F0010101600168DDF85A
:1007C000308021F400610160222184F83D10102165
:1007D00084F83E100021216466626785618D0227DE
:1007E000C0F201072185A7F10211E162E16A026806
:1007F00011F5803F42F48062026018BF01293DD1AB
:10080000016841F48071016020464FF0011100221F
:100810004346009501F096FC50B120680068C00581
:1008200044BF4FF400702064012004B0BDE8F0879D
:100830002069B0F5804F27D149F00100C0B221688E
:1008400042460861204639462B4601F061FD0028EA
:10085000EAD1208D02284BD001285FD0002840F03B
:10086000738000200390206841690391816903919E
:100870000399016841F40071016071E00829BFD05B
:10088000216B1129BCD0BFE7062000EAD9162068E9
:1008900006F1F0010161B91D204642462B4601F0E8
:1008A00037FD0028C0D120685FFA89F10161204638
:1008B000394642462B4601F02BFD0028B4D10020DA
:1008C00003902068002241694346039181690391A6
:1008D0000399016841F48071016020464FF00111D5
:1008E000009501F02FFC002897D146F0F100A6E713
:1008F0002068016841F400610160EFF3108072B676
:100900000020039020684169039181690391039954
:10091000016821F48061016062B621E0206801680D
:1009200021F480610160EFF3108072B60020039023
:10093000206841690391816903910399016841F439
:100940000071016062B60BE02068016841F48061CB
:10095000016000210391416903918069039003982C
:10096000208D002800F0CC8040F218094BF2895A03
:100970000237C2F20009C1F2F84A23260EE000BF96
:1009800010690870606A218D01306062481E208500
:10099000618D01396185010400F0B28080B20328C5
:1009A0000CD802282CD001284AD1204641462A469C
:1009B00001F01AFD002800F09F8035E720464146EF
:1009C0002A4601F011FD00287FF42EAF2068616AED
:1009D00000690870606A2268411C208D61620138DC
:1009E0002085638D013B638553695B07D3D580B256
:1009F0000328C5D1106820F480601060C0E700BFF4
:100A00002046394600224346009501F09BFB002812
:100A10007FF40AAFEFF3108072B62068616A026853
:100A200042F40072026000690870606A218D013032
:100A30006062481E2085608D0138608562B65BE08B
:100A40002046394600224346009501F07BFB0028F2
:100A50007FF4EAAE2068016821F480610160EFF361
:100A6000108072B62068616A00690870606A218D22
:100A70000130013960622185618D01396185D9F8C4
:100A80000010C908A1FB0A12110A714302910299D0
:100A900001390291029900293ED021684A69520722
:100AA0001AD40299013902910299A9B321684A69BD
:100AB000520711D4029901390291029961B3216858
:100AC0004A69520708D4029901390291029919B36F
:100AD00021684A695207DAD50A6842F400720A604E
:100AE00009690170606A218D01306062481E2085AD
:100AF000608D0138608562B62068616A006940E7F0
:100B0000202084F83D00002084F83E0084F83C005A
:100B100004B0BDE8F08700BF00202021206384F8E6
:100B20003D1084F83E00216C41F02001216462B642
:100B300084F83C00012004B0BDE8F0872DE9F043C3
:100B400083B01E46174689460446FFF73DFD94F8DC
:100B50003D10202924D10546206800BF81698907FE
:100B60001AD5FFF731FD411B20681A29F6D3816998
:100B70008907F3D500202021206384F83D1084F8F4
:100B80003E00216C41F02001216484F83C000220E9
:100B900003B0BDE8F08300BF94F83C10012903D1F5
:100BA000022003B0BDE8F083012184F83C10016805
:100BB000C90703D1016841F001010160016840F2F9
:100BC000020821F400610160212184F83D10102108
:100BD00084F83E100021216467626685618DC0F251
:100BE00001082185A8F10211E162E16A0A9E11F56E
:100BF000803F18BF01291DD1016841F48071016057
:100C000020464FF0011100223346009501F09AFA78
:100C100050B120680068C00544BF4FF400702064E4
:100C2000012003B0BDE8F0832069B0F5804F07D103
:100C3000FE2015E00829DFD0216B1229DCD0DFE788
:100C4000062000EAD9102168F030086108F1060199
:100C5000204632462B4601F05BFB0028E0D1FF2006
:100C6000216800EA090008612046414632462B46C9
:100C700001F04EFB0028D3D100200290206841698A
:100C8000029180690290029806E000BF204631463A
:100C90002A4601F0F9F918BB208D68B32046314689
:100CA0002A4601F0E9FBD8B9606A2168024612F8C9
:100CB000013B0B616262628D013A6285228D531E97
:100CC00023854F697F07E1D51B04DFD043780230CD
:100CD0000B616062608D01386085901E2085D5E7CC
:100CE000206C04289CD12068016841F400710160E7
:100CF000012003B0BDE8F0832068016841F4007171
:100D00000160202084F83D00002084F83E0084F833
:100D10003C0003B0BDE8F0832DE9F04F85B00446F8
:100D20000020994616460F460490FFF74DFC94F8B4
:100D30003D10202927D10546206800BF8169890719
:100D40001CD5FFF741FC411B20681A29F6D38169A5
:100D50008907F3D500202021206384F83D1084F812
:100D60003E00206C04F13C0A40F020002064022088
:100D700000218AF8001005B0BDE8F08FA2461AF8ED
:100D80003C1F012904D1022005B0BDE8F08F00BF4F
:100D900001228AF800200368DDE90F180E9ADB07AC
:100DA00003D1036843F001030360036823F4006385
:100DB0000360222084F83D00402084F83E0000209B
:100DC000206462626185608D394620850020CFF6FF
:100DD000FF70E062204632464B46CDE9008501F0C7
:100DE000C9F818B1012005B0BDE8F08F208D0228A8
:100DF00010D0012824D0002838D10020039020688A
:100E000041690391816903910399016841F400717B
:100E1000016037E02068016841F400610160EFF390
:100E2000108072B6002003902068416903918169A7
:100E300003910399016821F48061016062B621E0A9
:100E40002068016821F480610160EFF3108072B6C0
:100E500000200390206841690391816903910399FF
:100E6000016841F40071016062B60BE0206801681E
:100E700041F480610160002103914169039180691F
:100E800003900398208D002800F0D480042740F2BE
:100E900018094BF2895BC0F20107C2F20009C1F2E6
:100EA000F84B232617E000BF204641462A4601F0B2
:100EB0009BFA002896D12068616A00690870606A10
:100EC000218D01306062481E2085618D0139618568
:100ED000010400F0AF8080B2032867D8022800F038
:100EE00089800128E0D020463946002243460095FB
:100EF00001F028F900287FF475AF2068016821F41B
:100F000080610160EFF3108072B62068616A006949
:100F10000870606A218D0130013960622185618D20
:100F200001396185D9F80010C908A1FB0B12110A1B
:100F3000714304910499013904910499002900F046
:100F4000858021684A6952071ED4049901390491A9
:100F50000499002900F07A8021684A69520713D465
:100F6000049901390491049900296FD021684A69D4
:100F7000520709D40499013904910499002965D0D4
:100F800021684A695207D5D50A6842F400720A609E
:100F900009690170606A218D01306062481E2085F8
:100FA000608D0138608562B685E700BF2046414606
:100FB0002A4601F019FA00287FF414AF2068616A0C
:100FC00000690870606A2268411C208D61620138E6
:100FD0002085638D013B638553695B077FF578AF9F
:100FE00080B2032803D1106820F48060106010697B
:100FF00064E700BF2046394600224346009501F0D1
:10100000A1F800287FF4EEAEEFF3108072B62068EE
:10101000616A026842F40072026000690870606AE6
:10102000218D01306062481E2085608D0138608509
:1010300062B640E7202084F83D00002084F83E009E
:1010400000218AF8001005B0BDE8F08F00202021B3
:10105000206384F83D1084F83E00206C40F02000AE
:10106000206462B6012000218AF8001005B0BDE8B6
:10107000F08F000010B586B045F200410068C4F260
:10108000000100228842049202D006B010BD00BFC9
:1010900041F21804C4F20204206840F00800206005
:1010A000206800F0080001900198C02002901220F2
:1010B00003900320059001F5384002A9FFF77CF961
:1010C000606840F400106060606800F400100190F7
:1010D000019806B010BD000040F2100040F2C411AB
:1010E000C2F20000C2F2000100780A6810440860F1
:1010F0007047000080B542F20000C4F202000168AF
:1011000041F010010160032000F08CF8002000F095
:1011100005F800F027F8002080BD000070B540F20F
:101120001006C2F2000640F218013278C2F2000145
:101130004FF47A730968B3FBF2F20446B1FBF2F1A3
:10114000084600F089FB0F2C4FF0010508D838B98C
:101150004FF0FF3021460022002500F037F8746080
:10116000284670BD82B041F21800C4F20200016846
:10117000022241F001010160016801F001010191C9
:101180000199416841F080514160406800F0805011
:10119000009000980420C4F20100016862F31A6113
:1011A000016002B070470000002848BF704700F09F
:1011B0001F01012202FA01F11C2202EAD0004EF2C4
:1011C0000012CEF2000281507047000010B54EF6BA
:1011D0000C5CCEF2000CDCF80030C3F3022E8EF073
:1011E0000704042C28BF0424BEF103034FF0FF3E84
:1011F0000EFA04F438BF0023A14399400EFA03F31A
:101200009A43114300F00F0200F160430901043AD0
:1012100003F564436244002848BF02F10C031970CF
:1012200010BD00004EF60C51CEF200010A684FF6D8
:10123000FF031A4060F30A2242F0806040F0FD7024
:1012400008607047002804BF012070472DE9F04373
:1012500081B042F20008C4F202080446D8F8000047
:101260000D4600F0070088420CD2D8F8000020F0AC
:1012700007002843C8F80000D8F8000000F0070075
:10128000A8426CD1206841F204098107C4F2020926
:1012900017D5410705D5D9F8001041F4E061C9F828
:1012A0000010010705D5D9F8001041F46051C9F8C4
:1012B0000010D9F80010A26821F0F0011143C9F81C
:1012C0000010C00742D1D8F8000000F00700A84283
:1012D0000CD9D8F8000020F007002843C8F8000017
:1012E000D8F8000000F00700A84238D12068410774
:1012F00007D5D9F80010E26821F4E0611143C9F87C
:101300000010000708D5D9F80000216920F46050CA
:1013100040EAC100C9F80000D9F8002002F00C0032
:10132000082841F20020C0F27A0051D144F2324341
:10133000C2F38341C0F60003595CD2033CD440F6AB
:101340000010C0F23D00484342E000BF6068022840
:101350000AD001282AD159F8041C890308D4012095
:1013600001B0BDE8F08300BF59F8041C8901F6D52F
:10137000D9F8001021F003010843C9F80000FFF775
:1013800023F9064641F28837D9F80000616800F079
:101390000C00B0EB810F96D0FFF716F9801BB84216
:1013A000F2D9032001B0BDE8F08300BF59F8041C56
:1013B0008907D4D5DCE700BFD9F8002044F23043D8
:1013C000C2F34042C0F600039A5C4843B0FBF2F01F
:1013D000D9F8001044F21842C1F30311C0F600021C
:1013E000515C40F2180220FA01F140F21400C2F2FE
:1013F00000000068C2F200021160FFF78FFE0020BB
:1014000001B0BDE8F083000040F2180041F2040191
:10141000C2F20000C4F202010068096844F22842E6
:10142000C1F30221C0F60002515CC84070470000C1
:1014300040F2180041F20401C2F20000C4F20201BD
:101440000068096844F22842C1F3C221C0F60002D4
:10145000515CC84070470000002804BF012070475D
:101460002DE9F04182B00446007841F20006C00741
:10147000C4F202060CD0706800F00C00042840F0A2
:1014800081803068800303D56068002800F04E81B9
:10149000207880071BD5706810F00C0F09D0706899
:1014A00000F00C00082840F08B807068C00300F149
:1014B00087803068800703D52069012840F0368195
:1014C0003068616920F0F80040EAC100306020789F
:1014D000000713D4207840072CD4E569002D00F0D4
:1014E0002081706800F00C00082840F0AF80012DCA
:1014F00040F00C81012002B0BDE8F081A069002815
:1015000000F08C800020C4F242200121C0F8801439
:10151000FFF75AF8054600BF706A800700F1BA80ED
:10152000FFF752F8401B0228F6D9032002B0BDE8AD
:10153000F08100BFF0695FEAC00808D4F06940F0AC
:101540008050F061F06900F080500090009847F200
:101550000007C4F200073868C0054DD4386840F46D
:1015600080703860FFF730F8054600BF3868C00566
:1015700042D4FFF729F8401B6428F7D9032002B0B2
:10158000BDE8F081706800F00C00082803D1706895
:10159000C0033FF576AF6068002800F00981B0F520
:1015A000A02F00F01D81B0F5803F00F01D81306854
:1015B00020F480303060306820F4802017E100BFD4
:1015C0002069002840F20000C4F2422000F08C8024
:1015D00001210160FEF7F8FF054600BF3068800773
:1015E0003FF56EAFFEF7F0FF401B0228F6D903204F
:1015F00002B0BDE8F08100BFE068002800F09A80EA
:10160000052800F0B180012800F0B280306A20F097
:1016100001003062306A20F00400ACE00020C4F227
:1016200042200021C0F88014FEF7CEFF054600BF1F
:10163000706A80077FF54EAFFEF7C6FF401B022899
:10164000F6D9032002B0BDE8F08100BF0027C4F244
:10165000422700203866FEF7B7FF022D05460DD160
:101660003068800140F1D680FEF7AEFF401B0228B3
:101670004FF00300F4D902B0BDE8F081306880017A
:101680004FD5FEF7A1FF401B02284FF00300F5D90C
:10169000F1E700BF40F21800C2F20000006844F613
:1016A000D351C1F26201A0FB0101480A019000BFC1
:1016B00000BF0198411E002801913FF40BAF00BF0D
:1016C0000198411E002801913FF404AF00BF01982A
:1016D000411E002801913FF4FDAE00BF0198411E5C
:1016E00000280191E4D1F5E600210160FEF76CFFCE
:1016F000054600BF306880077FF5E9AEFEF764FF5E
:10170000401B02284FF00300F4D9B4E77068216A47
:1017100000F480328A4209D1616A00F47010884274
:1017200004D1002002B0BDE8F08100BF012002B06A
:10173000BDE8F081306A20F001003062306A20F0AC
:1017400004003062FEF740FF054641F2883700BFD3
:10175000306A800722D5FEF737FF401BB8424FF0B2
:101760000300F5D987E700BF306A40F0040030621B
:10177000306A40F001003062FEF726FF054641F274
:10178000883700BF306A800708D4FEF71DFF401B72
:10179000B842F7D9032002B0BDE8F081B8F1000FDC
:1017A0003FF59BAEF06920F08050F06195E600BFF8
:1017B000306820F480303060306820F48020306061
:1017C000FEF702FF054600BF306880037FF560AE7C
:1017D000FEF7FAFE401B64284FF00300F4D94AE7F5
:1017E000306840F480203060306840F480303060F1
:1017F000FEF7EAFE054600BF306880033FF548AEBD
:10180000FEF7E2FE401B6428F6D9032002B0BDE8D3
:10181000F08100BF206AB0F5803F05D17168A268F1
:1018200021F40031114371607168626A21F474110E
:1018300011430843706001203866FEF7C5FE044678
:10184000306880013FF56DAFFEF7BEFE001B022839
:101850004FF00300F4D90EE7411E0020B0EB116FEA
:101860001CBF012070474EF21002CEF20002516000
:101870004EF62351CEF20001F0230B700721906049
:10188000116070477047000070470000B0B582B02B
:10189000044600680168C368426901F02F05202DE5
:1018A00003F0200506D12DB1204602B0BDE8B040BE
:1018B00000F052BE5FEA017C1EBF02F0010E03F48D
:1018C000907212EB0E0243D1226BCD0618D5012A7D
:1018D00016D113F0100213D000210191016801917B
:1018E000416801910199406940063BD4A08DE18D8A
:1018F000E28D002A18BF884240F0F28102B0B0BDEC
:101900000A0640F1E78013F0800200F0E38094F8CB
:1019100041102129F2D1A168B1F5805F03D121697D
:10192000002900F06382216A4A1C22620978416022
:10193000E18C01390A04E184E0D1C16821F0800121
:10194000C160C16841F04001C16002B0B0BD00BFDC
:10195000CA0718BF13F4807240F0D0804A0700F124
:10196000D380D8E0E06B016849688AB2002AC5D00C
:10197000A38D9A42C2D2E1858069202800F09E8022
:10198000206850E8030F216820F4807041E80302CA
:10199000DAB1206850E8030F216820F4807041E834
:1019A000030292B1206850E8030F216820F4807090
:1019B00041E803024AB1206850E8030F216820F48F
:1019C000807041E80302002ADAD1206850E8050F50
:1019D000216820F0010041E80502C2B3206850E808
:1019E000050F216820F0010041E805027AB3206864
:1019F00050E8050F216820F0010041E8050232B3EC
:101A0000206850E8050F216820F0010041E8050238
:101A1000002ADAD11BE000BF206850E8050F2168DA
:101A200020F0400041E80502DAB1206850E8050FD7
:101A3000216820F0400041E8050292B1206850E89A
:101A4000050F216820F0400041E805024AB12068F6
:101A500050E8050F216820F0400041E80502002A07
:101A6000DAD1202084F8420000202063206850E86A
:101A7000030F216820F0100041E80302DAB120686A
:101A800050E8030F216820F0100041E8030292B1F2
:101A9000206850E8030F216820F0100041E803029D
:101AA0004AB1206850E8030F216820F0100041E897
:101AB0000302002ADAD1E06BFEF7ECFB0220606340
:101AC000A08DE18D401A81B2204602B0BDE8B04041
:101AD000FFF7D8BE49067FF511AF13F040013FF480
:101AE0000DAFC16821F04001C1602021204684F87B
:101AF000411002B0BDE8B04000F038BA626C42F06C
:101B0000010262644A0706D5BEF1000F03D0626C81
:101B100042F0020262648A0706D5BEF1000F03D0CC
:101B2000626C42F004026264BCF1000F06D55EEA0A
:101B3000050203D0626C42F008026264626C002A03
:101B40003FF4DCAE890604D51DB1204600F004FD4B
:101B500020684069616C00F0400001F00801401805
:101B600000F0B680206850E8030F216820F49070E0
:101B700041E80302BAB3206850E8030F216820F45B
:101B8000907041E8030272B3206850E8030F2168A7
:101B900020F4907041E803022AB3206850E8030F54
:101BA000216820F4907041E80302002ADAD11AE09B
:101BB000206850E8050F216820F0010041E8050287
:101BC000DAB1206850E8050F216820F0010041E8F3
:101BD000050292B1206850E8050F216820F001004D
:101BE00041E805024AB1206850E8050F216820F05D
:101BF000010041E80502002ADAD1206B012824D136
:101C0000206850E8030F216820F0100041E803022B
:101C1000DAB1206850E8030F216820F0100041E895
:101C2000030292B1206850E8030F216820F01000F1
:101C300041E803024AB1206850E8030F216820F010
:101C4000100041E80302002ADAD1202084F8420083
:101C50000020206320684069400640F1C180206870
:101C600050E8050F216820F0400041E80502DAB194
:101C7000206850E8050F216820F0400041E8050287
:101C800092B1206850E8050F216820F0400041E83B
:101C900005024AB1206850E8050F216820F0400095
:101CA00041E80502002ADAD1E06B002800F09880B4
:101CB00042F24D51C0F600014163FEF70FFB0028D0
:101CC0003FF41CAEE06B416B02B0BDE8B04008478A
:101CD0002046FFF7D9FD0020606402B0B0BD00BF10
:101CE000401A00BF216851E8031F226821F4907157
:101CF00042E80313BBB3216851E8031F226821F4B3
:101D0000907142E8031373B3216851E8031F2268FE
:101D100021F4907142E803132BB3216851E8031FAB
:101D2000226821F4907142E80313002BDAD11AE003
:101D3000216851E8051F226821F0010142E80513DE
:101D4000DBB1216851E8051F226821F0010142E85A
:101D5000051393B1216851E8051F226821F00101A4
:101D600042E805134BB1216851E8051F226821F0B4
:101D7000010142E80513002BDAD1202184F842103A
:101D800000212163216851E8031F226821F010011E
:101D900042E80313DBB1216851E8031F226821F0F8
:101DA000100142E8031393B1216851E8031F226830
:101DB00021F0100142E803134BB1216851E8031FE1
:101DC000226821F0100142E80313002BDAD102222D
:101DD00081B22046626302B0BDE8B040FFF752BD59
:101DE000204602B0BDE8B040FFF74EBD216A31F891
:101DF000022B6FF35F224260216299E5002804BF45
:101E00000120704710B5044690F8410028B9002021
:101E100084F84000204600F063F8242084F8410054
:101E20002068D4E90212C36823F40053C360036935
:101E300023F440531A430261D4E904231143C268D6
:101E4000194341F20C639A431143C1604169A2698D
:101E500021F44071114343F60002C4F201029042A2
:101E6000416103D0FFF7D0FA02E000BFFFF7E0FACC
:101E7000D4E90023192148439900B0FBF1F048F25E
:101E80001F5CC5F2EB1CA0FB0C314FF69C7349099B
:101E9000C0F6FF7301FB0300322303EB0010A0FB2D
:101EA0000C03F02000EA531000EB0110C3F34311C0
:101EB000084490601069202120F49040106150691E
:101EC00020F02A005061D06840F40050D06000201B
:101ED000606484F8411084F84210606310BD000013
:101EE00070B586B040F60004C4F201040068A4F5A1
:101EF000444100268842049602D006B070BD00BF5F
:101F000041F21800C4F20200416802AD41F4003110
:101F10004160416801F4003101910199016841F08B
:101F2000040101600068294600F004000190019856
:101F30000420029002200390032005902046FEF723
:101F40003BFA0820CDE90206204629460496FEF712
:101F500033FA262000210022FFF738F92620FFF768
:101F600023F906B070BD0000704700007047000004
:101F7000FEE700002DE9F04782B0044600689A466B
:101F80000B9D0A9E0368914643F4806202600268DA
:101F90000F4642F48071016020464FF0011100228B
:101FA0003346009500F0CEF850B120680068C005B7
:101FB00044BF4FF400702064032002B0BDE8F087F6
:101FC00040F202082068C0F2010807F0FE0707612E
:101FD0002046414632462B4600F09AF920B10120B6
:101FE00002B0BDE8F08700BF0020019020682A46BB
:101FF000416901918069314601900198204600F0C5
:102000003BFAB0B92068BAF1010F09D04FEA1921A3
:102010000161204631462A4600F02EFA48B9206870
:102020005FFA89F10161204631462A4600F024FA20
:1020300060B1206C0428D2D12068016841F400719D
:102040000160012002B0BDE8F08700BF20680022D7
:102050000168334641F48071016020464FF0011160
:10206000009500F06FF800289FD147F0010C276819
:102070002046414632462B46C7F810C002B0BDE8A4
:10208000F04700F045B9000070B50368044653F806
:10209000140F400711D40E46481C29D086BB00BF40
:1020A0001868400527D4FEF78FFA236853F8140FF9
:1020B000400737D518684007F2D5002070BD00BF33
:1020C00018684007F9D41868400514D41868400708
:1020D000F3D4186840050ED418684007EDD418688A
:1020E000400508D4186840074FF0000048BF70BD95
:1020F00018684005E4D56FF480601860042012E091
:10210000154603E053F8140F4007D6D4186840056D
:10211000F1D4FEF759FA401B2368B042F2D958694E
:102120004007EFD4202000212022216384F83D20A5
:1021300084F83E10226C10432064012084F83C1087
:1021400070BD00002DE9F041054600681E461446AA
:1021500001F47F0201338FB242D0DDF81880B2F56E
:10216000803F40F0878040693840C01BB0FA80F063
:102170004009A04240F0C8804EB924E04069384090
:10218000C01BB0FA80F04009A04240F0BD80FEF7CD
:102190001BFAA0EB08012868B142EFD94169394028
:1021A000C91BB1FA81F14909A142E7D19BE000BF07
:1021B00040693840C01BB0FA80F04009A0424FF09F
:1021C000000040F0A280FEF7FFF92868416939401D
:1021D000C91BB1FA81F14909A142E9D183E000BFED
:1021E000B2F5803F24D100BF41693940C91BB1FA23
:1021F00081F14909A14240F0878041693940C91BFA
:10220000B1FA81F14909A14240F07E80416939402B
:10221000C91BB1FA81F14909A14275D1416939401F
:10222000C91BB1FA81F14909A142DDD06CE000BFC0
:1022300081693940C91BB1FA81F14909A14263D1D1
:1022400081693940C91BB1FA81F14909A1425BD1C9
:1022500081693940C91BB1FA81F14909A14253D1C1
:1022600081693940C91BB1FA81F14909A142DFD026
:102270004AE000BF80693840C01BB0FA80F04009D6
:10228000A04241D146B923E080693840C01BB0FA72
:1022900080F04009A04237D1FEF796F9A0EB080183
:1022A0002868B142F0D981693940C91BB1FA81F17E
:1022B0004909A142E8D116E080693840C01BB0FA54
:1022C00080F04009A0424FF0000018BFBDE8F08147
:1022D000FEF77AF9286881693940C91BB1FA81F1A2
:1022E0004909A142E8D100202021286385F83D104A
:1022F00085F83E00296C41F02001296485F83C00F6
:102300000120BDE8F08100BF0020BDE8F0810000A1
:10231000F0B581B0044600681D4643698FB203EAF8
:102320000701B94202D1002001B0F0BD4169164653
:1023300001323FD049053FD4CEB100BFFEF744F98A
:10234000411B2068B14203D941693940B94215D1D6
:1023500041693940B942E6D041694905EED52BE0E3
:1023600041693940B942DED04169490524D4FEF7BC
:102370002BF9206841693940B942F1D0202023E08F
:1023800041693940B942CED04169490514D4416907
:102390003940B942C7D0416949050DD44169394036
:1023A000B942C0D04169490506D441693940B942B2
:1023B000B9D041694905E3D5016841F40071016074
:1023C0006FF480614161042000212022216384F8A0
:1023D0003D2084F83E10226C1043206484F83C10A9
:1023E000012001B0F0BD000070B50446006815463C
:1023F00050F8143F5A063DD40E4629B926E000BFD6
:1024000050F8141F490635D40168C90621D4FEF7D7
:10241000DBF8411B2068B142F2D941694906EFD48B
:1024200000202021206384F83D1084F83E00206CB9
:1024300040F0200018E000BFFEF7C6F8206850F812
:10244000141F4906ECD50168490613D40168C90672
:10245000F2D56FF01001016000202021206384F884
:102460003D1084F83E00206C2064002084F83C007D
:10247000012070BD002070BD70B50368044653F89C
:10248000140F000611D40E46481C29D086BB00BF8D
:102490001868400527D4FEF797F8236853F8140FFF
:1024A000000637D518680006F2D5002070BD00BFC1
:1024B00018680006F9D41868400514D41868000696
:1024C000F3D4186840050ED418680006EDD41868D7
:1024D000400508D4186800064FF0000048BF70BDE2
:1024E00018684005E4D56FF480601860042012E09D
:1024F000154603E053F8140F0006D6D418684005BB
:10250000F1D4FEF761F8401B2368B042F2D9586954
:102510000006EFD4202000212022216384F83D20F2
:1025200084F83E10226C10432064012084F83C1093
:1025300070BD0000FEE70000FEE7000070470000ED
:1025400070470000FEF7C8BD70470000406A0021D8
:10255000C185C184FFF798B981B090F84210222953
:1025600021D183680246B3F5805F09D152F8281F54
:1025700052F8183C002B63D003685B680AE000BF88
:1025800052F8281F13B90369002BF5D003685B6864
:1025900003F07F030B70116801311160C18D0139A7
:1025A0000A04C18502D001B0704700BF0168CA6843
:1025B00022F02002CA60CA6822F48072CA604A69A6
:1025C00022F001024A61202180F84210002141637B
:1025D000026B012A3CD10163016851E8031F0268C4
:1025E00021F0100142E80313DBB1016851E8031F39
:1025F000026821F0100142E8031393B1016851E829
:10260000031F026821F0100142E803134BB1016877
:1026100051E8031F026821F0100142E80313002B68
:10262000DAD101680A68D20606D5002200920A684B
:102630000092496800910099818D01B0FFF722B99D
:10264000026852686FF35F2221F8022B8162A5E7CE
:1026500001B0FFF789BC000040F2F800C2F20000B0
:102660003030FFF713B90000FEE700002DE9F04716
:1026700041F20C0840F2800740F2F804C4F201086D
:10268000C2F20007002045F6294940F63D2AC2F271
:102690000004388045E000BF00F0F0F807F1300397
:1026A0000FCB00F0CBFED7E91A65D7E91C23C7E9A9
:1026B0000E013046294600F0C1FED4E90065D4E998
:1026C0000223C7E91C013046294600F0B7FED4E9D1
:1026D0000465D4E90623C4E902013046294600F026
:1026E000ADFED7E91265D7E91423C4E906013046E7
:1026F000294600F0A3FED7E91665D4E90823C7E907
:1027000014013046294600F099FEC4E9080104206E
:10271000FDF73EFE3888013081B2B1F5FA6F38809E
:102720000CD200FB09F080B25045B5D8D8F80000B3
:1027300080F40050C8F80000AEE700BF4FF400502E
:10274000C8F8040044F2000AD7E90E01C4F29F0A57
:10275000D7E914980022534600F02CFFD7E91C2338
:10276000C7E90E01104619460022534600F022FF29
:10277000C7E91C01D4E90201D4E9066500225346E9
:1027800000F018FFC4E902013046294600225346F2
:1027900000F010FFC4E906014846414600225346B6
:1027A00000F008FFD4E90823C7E9140110461946D0
:1027B0000022534600F0FEFEC4E90801BDE8F087A0
:1027C00070B582B040F270146B20C2F200040DF1BB
:1027D0000605ADF806004FF0FF362046D0212A4608
:1027E00002230096FEF7AAF940F61B00ADF806009A
:1027F0002046D0212A4602230096FEF79FF941F297
:102800001C00ADF806002046D0212A46022300967F
:10281000FEF794F91B208DF806002046D0212A46A9
:1028200001230096FEF78AF90DF105022046D0211A
:1028300001230096FDF780FF9DF80500082811D1BF
:1028400040F21A30ADF8060040F27010C2F20000FB
:102850000DF10602D02102230096FEF76FF902B0B7
:1028600070BD00BF41F21000C4F201004FF40051EE
:10287000016000BF0A20FDF78BFDFBE7B0B588B013
:102880000E200DF11201CDE9001040F270104FF052
:10289000FF35C2F20000D0213B2201230295FEF752
:1028A0003BFABDF81200C0BA01F01AF840F2F80481
:1028B000BDF81420C2F20004C4E90401D0BA01F04A
:1028C0000FF840F28005BDF81620C2F20005C5E9F8
:1028D0001201D0BA01F004F8BDF81820C5E91601BC
:1028E000D0BA00F0FDFFBDF81A20C4E90A01D0BA41
:1028F00000F0F6FFBDF81C20C5E90C01D0BA00F0CD
:10290000EFFFBDF81E20C5E91A01D0BA00F0E8FFBC
:10291000C4E9000108B0B0BD96B0FEF7EBFB4FF480
:1029200080300CAE002401250D903046CDE91444D2
:10293000CDE91244CDE91044CDE90E440C95FEF7E3
:102940008BFD28B1EFF3108072B600BFFEE700BF29
:102950000F20CDE9070507A80021CDE909440B9414
:10296000FEF770FC20B1EFF3108072B6FEE700BFF7
:1029700041F21804C4F20204206844F2004840F016
:10298000200020602068C4F2000800F020000C90B5
:102990000C98206808F5805140F004002060206801
:1029A00041F6802200F004000C900C98206800256D
:1029B00040F00800206020684FF4804300F00800D9
:1029C0000C900C9840F27010C2F20000C0F20602A7
:1029D00080E82600C0E90353C0E90555C0E9075562
:1029E000FDF7F8FD20B1EFF3108072B6FEE700BFEF
:1029F00040F2F80AC2F2000A504640F8308F4FF415
:102A000016510C22C0E90115C0E90355C0E905259E
:102A1000C561FFF7F3F928B1EFF3108072B600BF7C
:102A2000FEE700BF206840F60C010843206040F636
:102A30000400C4F20100016842F6344221F0FF01B3
:102A400001600168C4F2010241F0AA01016006219F
:102A500042F80C1C40F2E731002342F8081C1360D6
:102A600052F81C1C40F6144541F0600142F81C1C51
:102A7000536052F81C1CC4F2010541F4C04142F8F5
:102A80001C1C52F8141C41F0110142F8141C11696D
:102A900041F40041116152F8341C41F0010142F847
:102AA000341CD0F8001489B2C0F80014D0F8001417
:102AB00041F0885141F48811C0F80014216841F0B8
:102AC00010012160D5F8F01321F47001C5F8F0135E
:102AD000D5F8F01341F40011C5F8F013D0F808143C
:102AE00041F42041C0F80814FFF76AFE40F6B83000
:102AF000FDF74EFCFFF7BAFD40F280094FF420408D
:102B0000C2F20009286015E04FF4805028604FF4AD
:102B1000804045F8040C24F0004001F0E9F942F649
:102B20003441C4F2010140F2F80A086048600CAE7A
:102B3000C2F2000AD8F8000080062BD5D8F80400AD
:102B4000D8F8001009060DD4D8F8001009065CBFAB
:102B5000D8F800105FEA016104D4D8F80010090623
:102B6000EED500BFC0B25328C8F8040008D04628EC
:102B700008D042280ED10020C4F2A00005E000BF1A
:102B8000002002E00020CCF2E00040F20001C2F29E
:102B90000001C860FDF718FDD9F81C10C9F818002D
:102BA000411A0529C6D3C9F81C000E20019040F235
:102BB0007010C2F20000D0213B2201234FF0FF37FA
:102BC00000960297FEF7A8F8BDF83000C0BA00F0F2
:102BD00087FEBDF83220CAE90401D0BA00F080FEB9
:102BE0000746BDF834000C46C0BAC9E9127400F0BB
:102BF00077FEBDF83620CDE90501C9E91601D0BA46
:102C000000F06EFEBDF83820CAE90A01D0BA00F023
:102C100067FE0546BDF83A000E46C0BAC9E90C5633
:102C200000F05EFEBDF83C20C9E91A01D0BA00F000
:102C300057FE49F69A1249F69913CAE90001284647
:102C40003146C9F69912C3F6B97300F061FE054624
:102C50000E46D9E90A014CF6CD424CF6CC43D9E9EF
:102C60000EABCCF6CC42C3F6EC7300F051FE2A4614
:102C7000334600F0E3FB52465B46C9E90A0100F027
:102C800051FF46F200030022C4F2500300F092FC10
:102C9000D9E91423C9E910013846214600F042FF62
:102CA0000026C3F630760022334600F031FE04469B
:102CB0000D46DDE905010022334600F029FE0246FB
:102CC0000B462046294600F0B9FA4CF2F8124AF2B7
:102CD000DC53C1F66322C4F24C0300F019FE00F08D
:102CE0007BFB0446D9E9020141F27B420391069045
:102CF000D9E9100147F6E123D9E91856C4F2AE72BA
:102D0000C3F67473C9F8204092461F4600F000FED7
:102D10002A46334600F092FB054620460E4600F058
:102D2000EFFF52463B4600F0F3FD4AF2D7324DF238
:102D30000A7304460F4628463146C3F67052C3F65E
:102D4000EF7300F0E5FD22463B4600F077FB0446BA
:102D500040F20000C2F200000E46D0E9007A81681D
:102D6000C0680591C9E9184600F0CAFF02460B4643
:102D70002046314600F0D6FE00F02EFB8346C9F80F
:102D800004003846594601F03BF90490584600F0DB
:102D9000B7FF074603980D4600F0B2FF0E462946DE
:102DA00041F27B45C4F2AE7547F6E123044638464E
:102DB0002A46C3F6747300F0ABFD2246334600F09A
:102DC0003DFB00F009FB0021C4F2C821044601F0DC
:102DD00033F80026CCF2C82600281CBF0024C4F219
:102DE000C8242046314601F027F8002808BF3446A1
:102DF00050462146C9F80C4001F002F906990746F1
:102E0000584601F0C9F900F07BFF47F6E1232A4656
:102E100040F61445C3F67473C4F2010500F0CAFB12
:102E200000F0DAFA0146C9F81000059801F0E8F858
:102E3000044604983946C9F808B000F08DFF2146D1
:102E400000F08AFF4CF20001C4F27941044600F020
:102E5000F3FF4CF20006CCF2794600281CBF4CF27E
:102E60000004C4F279442046314600F0E5FF002812
:102E70004FF4204040F2000108BF3446C9F8144026
:102E800028605846C4F2600100F0EBFF00283FF4D0
:102E90003BAE00215846CCF2600100F0CDFF40F27D
:102EA000F80A0CAEC2F2000AC0B100215846C4F2C2
:102EB000A01100F0D6FF18B300215846CCF2A011A3
:102EC00000F0BAFF20B342F63440C4F20100002102
:102ED000016041604FF4204028602BE64FF48050A1
:102EE00045F8040C4FF48040286024F0004000F0C6
:102EF000FFFF42F63441C4F201010860486019E660
:102F00004FF4805028604FF4804045F8040C06E0F0
:102F10004FF4805045F8040C4FF48040286042F68E
:102F20003440C4F2010040F2E7310160416001E643
:102F3000490050EAC12018BF04204A0D18BF40F0D4
:102F4000010040F2FF72B2EB515F08BF40F0020097
:102F5000012808BF052070472DE9F0414F1E00EB06
:102F6000C7010446D1E9000115461E4637F00602A6
:102F70000DD02A46334600F0CBFC7F1E04EBC7037E
:102F8000D3E9002300F05AFA37F00602F1D1022FFC
:102F900025D0042F13D0062F18BFBDE8F0812A4694
:102FA000334600F0B5FCD4E90A2300F047FA2A467C
:102FB000334600F0ADFCD4E9082300F03FFA2A467E
:102FC000334600F0A5FCD4E9062300F037FA2A4680
:102FD000334600F09DFCD4E9042300F02FFA2A4682
:102FE000334600F095FCD4E9022300F027FA2A4684
:102FF000334600F08DFCD4E90023BDE8F04100F039
:103000001DBA012201F06FB900F018BA024A00207F
:10301000110701F068B9000001FDFFFF2DE9F84F2D
:1030200004460D4621F0004000917349814211DCB5
:103030007249884201DC06D12CB120462946BDE800
:10304000F84FFFF7DEBF6E48002DCCBF6D496E49CB
:10305000BDE8F88F6D49814211DD6D498142D8BFCD
:103060004FF0FF366DDD20462946FFF761FF04284B
:1030700008BFFFF7CBFF20462946BDE8F88F65491A
:10308000654F25F00045814233DD6449814219DDF9
:10309000002632464FF080432046294600F0CEF904
:1030A00080468A4601222046294601F01CF900226A
:1030B0003B4600F037FD4246534600F07BFA04469B
:1030C0000D463EE001260022BA463B4620462946F0
:1030D00000F0B4F980460F460022534620462946A8
:1030E00000F020FD42463B4600F064FA04460D46DF
:1030F00027E04B4981421BDDDFF828A10226002290
:1031000053462046294600F003FC00223B4600F0CF
:1031100095F980460F46002253462046294600F086
:1031200001FD42463B4600F045FA04460D4608E0E4
:10313000032622462B4600203B4900F03BFA04467A
:103140000D4622462B461046194600F0E1FB8B4601
:10315000824602460B4600F0DBFB07460246334838
:1031600088460B4606217844FFF7F6FE52465B463A
:1031700000F0CEFB82462E488B463A464346052158
:103180007844FFF7E9FE3A46434600F0C1FB0246A9
:103190000B46002E504659460CDA00F04FF92246F5
:1031A0002B4600F0B5FB01B022462B46BDE8F04FA0
:1031B00000F0ACBC00F042F922462B4600F0A8FB20
:1031C0001C4A7A4402EBC603D3E9002300F0AAFCB0
:1031D00022462B4600F0A6FC174A7A4402EBC603AF
:1031E000D3E9002300F092FC009A002AB8BF81F0D6
:1031F0000041BDE8F88F0000000010440000F07F9F
:10320000182D4454FB21F93FFB21F9BF0000DC3F9E
:103210000000203E0000F33F0000F03F0000E63FCA
:10322000008003400000F83F0000F0BF761200006D
:1032300034120000D21100009A1100002DE9F04D67
:103240009446CCF1000423F000464CEA0404594FA4
:1032500046EAD4749A46884621F00042BC4206D819
:10326000454240EA050442EAD474BC4204D9BDE8B0
:10327000F04D6246FFF7C8BEAAF14055A5F17F6543
:1032800055EA0C040BD0022404EAAA744A4DDFF874
:103290002CE144EAD87452EA000B04D00CE0BDE8FB
:1032A000F04DFFF7BBBE002C14BF012CBDE8F08D24
:1032B000022C30D0032C32D056EA0C0B0AD0BE427E
:1032C00020D1BA4209D126F0804622F0804233460E
:1032D000114617E000291ADB25E0DFF8E4B0FB44D3
:1032E000002C04BFDBE90001BDE8F08D012C02BF1A
:1032F000DBE9000181F00041BDE8F08D022C0AD02D
:10330000032C0CD0BA4212D1B8F1000F0BDA2A48C4
:103310002C49BDE8F08D28462B49BDE8F08D2846A4
:103320007146BDE8F08D24482849BDE8F08D921B18
:1033300012153C2AC4BF204F244E10DCBAF1000FF6
:10334000BEBF12F13C0F00273E4608DB624600F08C
:1033500031F921F00041FFF761FE07460E4694B1B6
:10336000012C08BF86F000460DD0194A194B022CDB
:103370003846314615D000F0D5FB2A46BDE8F04D61
:10338000114B00F0CFBB002213463846314600F007
:103390006BFA04BF0220FCF735FF38463146BDE822
:1033A000F08D00F0BFFB2A46BDE8F04D064B00F063
:1033B000ADBB00000000F07F182D4454FB2109C074
:1033C0002E110000FB21F9BFFB210940FB21F93F31
:1033D000075C143326A6A13C21F0004201F0004313
:1033E000A2F16052B2F5801F28BFD2F17F6C0BD9D9
:1033F0005FEA001C43EAC20242EB507018BF7047FC
:1034000028BF20F001007047B2F5801FBCBF1846EE
:1034100070474FEA410C1CF5001F02D2084600F02D
:10342000B6BE70B500F01EFB00000089FFF7F6BFC6
:103430004FF00040A0F580007047000010B591EA01
:10344000030F48BF83F0004300F17483841A71EBCB
:10345000030C05D2121943EB0C03001B61EB0C01AA
:103460004FEA1154A4EB135CDFF81CE11EEA430F92
:1034700018BF9EEA445F00F0748021EA045123EAF9
:103480000E0343F48013DCF1200E32D322FA0CFE3B
:1034900010EB0E0023FA0CFE41EB0E01CCF1200ED6
:1034A00003FA0EFE10EB0E00CCF1200E51F10001DC
:1034B000B1F5801F32D201EB045112FA0EF2BDE8D1
:1034C000104058BF7047401C38BF5FEA420218BF27
:1034D0007047002814BF20F0010041F100014FEABD
:1034E000410313F5001F38BF7047A1F1C04100F040
:1034F00007BB012A43EB0302ACF1200CDCF11F0EE9
:1035000032BF4FF0000E23FA0CF310EB030041EB37
:103510000451B4EB115FD0D0A1EB045101F580113F
:10352000490801EB04515FEA30000ED350F100006E
:1035300038BF12FA0EFE08D1BDE81040C9E7401CA2
:1035400038BF5FEA4202CAD1C3E7BDE810404FEA84
:10355000410313F5001F38BF7047A1F1C04100F0CF
:10356000CFBA9EEA445F08D011EA5E0FBDE8104072
:1035700004BF01F0004100207047BDE8104070B565
:1035800000F070FA64FBBE3E0000E0FF02494FF01D
:10359000000000F076BE00BF0000F87F491058BF61
:1035A000C1F140415B1058BFC3F140438B42EFF380
:1035B000008070472DE9C04130B4DFF8A4C23CEA76
:1035C000111418BF3CEA131400F0ED801CEA11142A
:1035D00081EA030544EAD57418BF1CEA131500F00C
:1035E000C880A4EB050404F17F7404F500344FF0A7
:1035F000004545EAC12145EAC32341EA505143EA67
:1036000052534FEAC0204FEAC222994208BF90426B
:1036100000F09D804FEA13650FF24416765D4FEA85
:10362000134506FB05F7C7F1807706FB07F74FEA5E
:10363000D737A7FB03687642A7FB06CEC8F58038CC
:1036400038BFA8F1010807FB08E6A6FB028C4FF083
:10365000000EE6FB03CEDCF1000CCEF1004E38BFCD
:10366000AEF1010EA6FB0C584FF00007E6FB0E87EB
:10367000A1FB08C6A0FB07CE16EB0E064FF0000517
:1036800045F10005E1FB076515F1E04E7EBFA4F5AD
:1036900080345FEA46066D4116F1800745F100056A
:1036A0004FEA172747EA05674FEA15254FEA0666EE
:1036B000A6F1DE46B6F1805F20D9384605EBC4712D
:1036C00024F0010C01EB0C11BCF1FE6F02D8F0BC30
:1036D000BDE8008124425CBF01F5801E9EEAC47FE4
:1036E00002D4F0BCBDE80081244200F13980A1F190
:1036F000C041F0BCBDE8004100F002BA4FEAD02062
:1037000040EA41504FEAD1214FEAD22242EA4352E5
:103710004FEAD323A7FB028607FB036605FB02667D
:103720001EEA0E0F58BFA6EB0056B6EB00564FEA46
:10373000520E4EEAC37E18EB0E0E56EB530EBCD55E
:1037400018EB02085E417F1C55F10005B5E74FF408
:1037500080154FF000074FF000064FF00008ACE76F
:1037600001F1C04101F000414FF00000F0BCBDE8A4
:1037700000810CEA131511EA0C1F00D00CE013EACB
:103780000C1F00F026804FF0000081EA030101F0D9
:103790000041F0BCBDE80081F0BCBDE8004181EA19
:1037A000030100F0ADB9F0BCBDE8004170B500F018
:1037B00059F900BF097EFC3E00F007B84FF0000049
:1037C00081EA030101F00041704781EA030100F042
:1037D00097B9F0BCBDE8004122494FF000007047A6
:1037E000FFFDFBF9F7F5F4F2F0EEEDEBE9E8E6E4C6
:1037F000E3E1E0DEDDDBDAD8D7D5D4D3D1D0CFCD4D
:10380000CCCBCAC8C7C6C5C4C2C1C0BFBEBDBCBB85
:10381000BAB9B8B7B6B5B4B3B2B1B0AFAEADACAB80
:10382000AAA9A8A8A7A6A5A4A3A3A2A1A09F9F9E5A
:103830009D9C9C9B9A99999897979695959493930C
:10384000929191908F8F8E8E8D8C8C8B8B8A8989A3
:103850008888878786858584848383828281818026
:103860000000FF070000F87F51EA030C17D41CF595
:10387000801F58BFBCF5801F00F10680994218BF19
:10388000704708BF9042704707D711F5801F58BF97
:1038900013F5801F19D499427047894270471CF56F
:1038A000801F08D5BCF5801FF7D58B4218BF704725
:1038B00008BF824270474FF4001C1CEB410F38BF19
:1038C0001CEB430F01D28B42704770B500F0CAF871
:1038D000922449004FF000514FF08053FFF75EBE35
:1038E00010F0004248BF4042B0FA80F310FA03F1F2
:1038F0000AD0C3F11D0303F5806302EB03524FEAC4
:10390000415002EBD12170474FF00000704700009A
:1039100070B5DFF848C11CEA111E1EBF1CEA131562
:103920009EEA0C0F95EA0C0F00F06F8081EA030409
:103930004EEAD47EAE4421EA4C1123EA4C1341F402
:10394000801143F48013AEF17F7EA1FB024CA0FBFB
:103950000365361955EB0C05A1FB034C4CF1000334
:10396000A0FB021C16EB0C06654153F10003094253
:1039700018BF46F0010613F4007F0BD14FEA033164
:103980004FEA053041EA155140EA165034036FF012
:1039900003020AE04FEAC3214FEAC52041EA55512C
:1039A00040EA5650F4026FF0020202EB2E4201EBA5
:1039B000025585EACE710AD05FEA440C18BF24F0A4
:1039C000004450F1000041F1000120EAD47040F2BF
:1039D000FE7C624500D270BDA84214BF4FF0804407
:1039E0004FF04044002E08BF0024BEF1806FA8BFF6
:1039F000A1F1C041BDE8704080F2828001F1C04178
:103A000001F000414FF0000070470CEA13159EEAE8
:103A10000C0F18BF95EA0C0F06D081EA030E4FF089
:103A200000000EF0004170BD00F01CF88900013E5E
:103A300000F007B800F009B84FEA430C5FEA5C5C9D
:103A400008D081EA030100F05BB84FEA410C5FEA5D
:103A50005C5CF6D102494FF0000070470000FF07A0
:103A60000000F87F0EF1020E2EF0030E5EF8046BDC
:103A7000364205D4012A43EB030515F5001F12D881
:103A8000012841EB010C1CF5001F0CD80ED14FEAA8
:103A9000D17C0CEB4C0C0CF1020C15F5001F08BF8F
:103AA0004CEBD37C04E04FF0080C01E04FEAD37CF0
:103AB0000CEB4C0526FA05F606F00706B6F1040CE9
:103AC00006D20EEB860CBDE870404CF0010C60474E
:103AD000DFE80CF0090B02024FF00041A1F50021D4
:103AE0004FF0000070BD19461046012851EB01044B
:103AF00018BFD4F5001484BF002001F0004170BD50
:103B00000808A0F500114FEA3101704710B591EA9D
:103B1000030F81F000413FF599AC83F0004300F0C2
:103B200009B8000010B591EA030F48BF83F00043C5
:103B30003FF58CAC841A71EB030C07D28CF0004C6F
:103B4000121943EB0C03001B61EB0C014FEA1154FB
:103B5000A4EB135CDFF8A4E11EEA430F18BF9EEA52
:103B6000445F00F0B48021EA045123EA6E0352421C
:103B7000C3EB6E0338BF5B1EDCF1200E25D322FAA7
:103B80000CFE10EB0E0043FA0CFE41EB0E01CCF1E3
:103B9000200E03FA0EFE10EB0E00CCF1200E51F1B8
:103BA000000129D401EB045112FA0EF2BDE81040D5
:103BB00058BF7047401C1CBFB2F1004F704700282F
:103BC0000CBF491C20F00100704712EB020E43EBC2
:103BD000030218BF4FF0010E4EEA4202ACF1200C76
:103BE000DCF11E0E56D943FA0CFE10EB0E00CCF1A0
:103BF0001E0E51F1FF31D5D50EF1010E12FA0EFE57
:103C0000404141EB010101EB445C5FEA5C5C10D98F
:103C100001EB045110EBDE7038BFBEF1004FBDE880
:103C2000104018BF704700280CBF491C20F001004D
:103C3000704734D24FEAD42C24F4006411F50011FB
:103C40001BD0B1FA81F20B3AA41AA41ED2F12003C0
:103C5000914030FA03F31943904001EBCC7101EB32
:103C60000451002CBDE81040A8BF704701F1C041CD
:103C700001F000414FF000007047B0FA80F310FAF5
:103C800003F102D1BDE810407047E41A173C480523
:103C9000C90AE2E701EB0451BDE810407047491042
:103CA0004FEA300001EB0451BDE8104002E04FF054
:103CB000000170474A0008BF0042F8D0B2F5001F6B
:103CC00028BF704701F000414FF0000070479EEAA6
:103CD000445F07D011EA5E0FBDE8104004BF002129
:103CE00000207047BDE8104070B5FFF7BBFE00BF75
:103CF00040DFF63E104683F0004170470000E0FFD1
:103D000043004FEAD30C4FEA3C0C43401FBF40072F
:103D10000CF1605113F0FE4F70471CF0006F03D19F
:103D20000CF00041002070470CF0004343EA507053
:103D300040EACC0010B500F0E4F900BF00000092AA
:103D40004FEA0001FFF7DCBE4FF00041A1F5002172
:103D50004FF000007047000090EA010F48BF81F06B
:103D6000004100F12082421A3CBF801A89184FEAB4
:103D7000D052A2EBD1534FF07F4C1CEA410F18BF39
:103D80009CEA026F00F03B804FF0004C4CEA0020B0
:103D90004CEA012121FA03FC10EB0C0C1ED202F1BB
:103DA000FF325FEA1C2040EBC25038BF70471CF066
:103DB0007F0F4FEA400C18BFBCF17F4F38BF7047F0
:103DC000C3F12003994008BF20F00100BCF17F4FF0
:103DD00038BF7047A0F1C04000F0D9B94FEA3C00AD
:103DE000000A40EBC25028BF1CF0FF0F4FEA400C06
:103DF000E6D018BFBCF17F4F38BF7047EAE79CEAB6
:103E0000026F05D010EA5C0F08BF00F00040704759
:103E100010B500F076F900BF64FBBE3E10B500F0AF
:103E200033F80CBF0120002010BD10B500F02CF8B5
:103E300014BF0120002010BD10B500F079F88CBF30
:103E40000120002010BD10B500F072F82CBF012039
:103E5000002010BD10B500F09FF894BF0120002095
:103E600010BD10B500F098F834BF0120002010BD3F
:103E7000401058BFC0F14040491058BFC1F1404107
:103E80008142EFF30080704750EA010C00F113808B
:103E90001CF5000F58BFBCF5000F01D488427047D5
:103EA00007D710F5000F58BF11F5000F15D4884241
:103EB0007047894270471CF5000F04D5BCF5000F10
:103EC000F7D5814270474FF0807C1CEB400F38BF24
:103ED0001CEB410F01D28142704710B500F011F97F
:103EE000922449004FF000504FF08051FFF7C0BFBF
:103EF000C10DD1F19E0206DB4FEA002343F00043DF
:103F000023FA02F07047004207D54FEA4001B1F1B1
:103F1000FE4F02D24FF00000704710B500F0F1F8EC
:103F200049922480002070476FEA2000704700000B
:103F300050EA010C00F113801CF5000F58BFBCF5CE
:103F4000000F01D48842704707D710F5000F58BF03
:103F500011F5000F15D488427047894270471CF54F
:103F6000000F04D5BCF5000FF7D5814270474FF024
:103F7000807C1CEB400F38BF1CEB410F01D281420B
:103F8000704710B500F0BDF8922449004FF0805002
:103F90004FF00051FFF76CBF50EA010C00F11380A5
:103FA0001CF5000F58BFBCF5000F01D488427047C4
:103FB00007D710F5000F58BF11F5000F15D4884230
:103FC0007047894270471CF5000F04D5BCF5000FFF
:103FD000F7D5814270474FF0807C1CEB400F38BF13
:103FE0001CEB410F01D28142704710B500F089F8F7
:103FF000922449004FF000504FF08051FFF738BF36
:104000004FF47F0C1CEAD0121EBF1CEAD11392EAB7
:104010000C0F93EA0C0F00F0478090EA010F48BFA5
:1040200042F480724FF0004C4CEA00204CEA01212F
:1040300002EB0302A0FB0113A2F50002002918BF46
:1040400043F001035B0028BF4FEA330342EB2242F7
:104050005FEA132C4CEBC2502EBFBCEB436FB2F5A2
:104060007C0F70474FEA036CBCF1004F08BF20F093
:104070000100B2F57C0F38BF70470BD582F0FF020C
:1040800012F5803FC8BF704700F1C040D8BF00F0B4
:104090000040704700F5000C5FEA4C0C48BF7047C9
:1040A000B0F1C04000F073B80CEAD11390EA010FF0
:1040B00048BF42F48072624538BF634504D280EA4B
:1040C000010000F00040704710B500F01AF800BF82
:1040D0008900013E00F007B800F009B85FEA410C22
:1040E0005FEA1C6C08D080EA010000F050B85FEA7B
:1040F000400C5FEA1C6CF6D14FF00040A0F5800048
:1041000070470EF1020E2EF0030E5EF8044B2442AF
:1041100004D44FEA4102B2F17F4F11D84FEA400375
:10412000B3F17F4F0CD80ED14FEAD07C0CEB4C0C86
:104130000CF1020CB2F17F4F08BF4CEBD17C04E0D4
:104140004FF0080C01E04FEAD17C0CEB4C0324FA51
:1041500003F404F00704B4F1040C06D20EEB840C53
:10416000BDE810404CF0010C6047DFE80CF0070898
:1041700002024FF00040A0F5800010BD084642004A
:1041800018BFD2F1807288BF00F0004010BDFF213F
:1041900041EAD050C005704790EA010F48BF81F056
:1041A00000413FF5E0AD421A04D882F00042A0EB96
:1041B000020011444FEAD052A2EBD1534FF07F4C92
:1041C0001CEA410F18BF9CEA026F4AD04FF0004C26
:1041D0004CEA00204CEA012121FA03FCB0EB0C0C64
:1041E0000FD412F0FE0F36D05FEA4C001DD500123E
:1041F00040EBC25038BF70471CF03F0F18BF7047EC
:104200000BE05FEA1C20A2F1010240EBC25038BF74
:1042100070471CF07F0F18BF7047C3F1200399400F
:1042200014BF401E20F0010070474FEA122380089F
:1042300008BF7047B0FA80FCA2EB0C02CCF1280C4E
:1042400060FA0CF093EA122F04BF00EBC2507047E3
:104250004FEAC3707047130A5FEADC1008BF70476B
:10426000F6E79CEA026F04D010EA5C0F08BF00205A
:10427000704710B5FFF745FF40DFF63E81F0004084
:1042800070470CF00F03092B08BF082000F059807D
:104290000A2B0BD0082B18BF704708BF1CF0400F2B
:1042A0000AD04FF000004FF0000170471CF0400FA3
:1042B00018BF4FF0004070471CF0100F08D000F0FE
:1042C0007F4220F0704342EAD3014FEA43707047C7
:1042D00000F0604021F07F4242EA000201F07F409E
:1042E00040EA727070474FF0FF0C4CF4E06C1CEA2F
:1042F00011531CBF9CEA030C9445C2BFDA4201EB88
:1043000002517047002B0DD0BCF1000F0FD001F00F
:104310000041002AA4BF41F0E04141F07F614FF02D
:104320000000704701F000414FF00000704750EA74
:1043300001334FF09B0C18BF4CF0806C7FF426A922
:1043400070471CF4801F11D01CF4E02F03D06FEADB
:10435000CC31490070474FF04050EFF3008222F01B
:10436000704242EA000282F3008870474FF000007A
:1043700070470000000000004FBB610567ACDD3FE7
:10438000182D4454FB21E93F9BF681D20B73EF3F7C
:10439000182D4454FB21F93FE2652F227F2B7A3CF4
:1043A000075C143326A6813CBDCBF07A8807703CAD
:1043B000075C143326A6913CC4EB98999999C9BF20
:1043C000711623FEC671BCBF6D9A74AFF2B0B3BF55
:1043D0009AFDDE522DDEADBF2F6C6A2C44B4A2BF15
:1043E0000D5555555555D53FFF8300922449C23F81
:1043F0006E204CC5CD45B73F513DD0A0660DB13FB5
:10440000EB0D76244B7BA93F11DA22E33AAD903FC6
:10441000000000000000000000000000000000009C
:10442000010203040607080900000000010203045A
:10443000010202030405060708090A0B0C0D0E0F02
:104440001010000068440008000000202000000058
:10445000500100088844000820000020A807000040
:1044600070010008000000005C8FC23E0AD7A33D27
:10447000BC74133C9A99193E010000001000000022
:0844800000127A0000000000A8
:04000005080000ED02
:00000001FF
